{
  "_format": "hh-sol-artifact-1",
  "contractName": "DZapStaking",
  "sourceName": "contracts/DZapStaking.sol",
  "abi": [
    {
      "inputs": [
        {
          "internalType": "address",
          "name": "target",
          "type": "address"
        }
      ],
      "name": "AddressEmptyCode",
      "type": "error"
    },
    {
      "inputs": [
        {
          "internalType": "address",
          "name": "implementation",
          "type": "address"
        }
      ],
      "name": "ERC1967InvalidImplementation",
      "type": "error"
    },
    {
      "inputs": [],
      "name": "ERC1967NonPayable",
      "type": "error"
    },
    {
      "inputs": [],
      "name": "FailedInnerCall",
      "type": "error"
    },
    {
      "inputs": [],
      "name": "InvalidInitialization",
      "type": "error"
    },
    {
      "inputs": [],
      "name": "NotInitializing",
      "type": "error"
    },
    {
      "inputs": [
        {
          "internalType": "address",
          "name": "owner",
          "type": "address"
        }
      ],
      "name": "OwnableInvalidOwner",
      "type": "error"
    },
    {
      "inputs": [
        {
          "internalType": "address",
          "name": "account",
          "type": "address"
        }
      ],
      "name": "OwnableUnauthorizedAccount",
      "type": "error"
    },
    {
      "inputs": [],
      "name": "UUPSUnauthorizedCallContext",
      "type": "error"
    },
    {
      "inputs": [
        {
          "internalType": "bytes32",
          "name": "slot",
          "type": "bytes32"
        }
      ],
      "name": "UUPSUnsupportedProxiableUUID",
      "type": "error"
    },
    {
      "anonymous": false,
      "inputs": [
        {
          "indexed": false,
          "internalType": "uint64",
          "name": "version",
          "type": "uint64"
        }
      ],
      "name": "Initialized",
      "type": "event"
    },
    {
      "anonymous": false,
      "inputs": [
        {
          "indexed": true,
          "internalType": "address",
          "name": "previousOwner",
          "type": "address"
        },
        {
          "indexed": true,
          "internalType": "address",
          "name": "newOwner",
          "type": "address"
        }
      ],
      "name": "OwnershipTransferred",
      "type": "event"
    },
    {
      "anonymous": false,
      "inputs": [
        {
          "indexed": true,
          "internalType": "address",
          "name": "implementation",
          "type": "address"
        }
      ],
      "name": "Upgraded",
      "type": "event"
    },
    {
      "anonymous": false,
      "inputs": [
        {
          "indexed": true,
          "internalType": "address",
          "name": "user",
          "type": "address"
        },
        {
          "indexed": false,
          "internalType": "uint256",
          "name": "tokenId",
          "type": "uint256"
        }
      ],
      "name": "_unstaked",
      "type": "event"
    },
    {
      "anonymous": false,
      "inputs": [],
      "name": "paused",
      "type": "event"
    },
    {
      "anonymous": false,
      "inputs": [
        {
          "indexed": true,
          "internalType": "address",
          "name": "user",
          "type": "address"
        },
        {
          "indexed": false,
          "internalType": "uint256",
          "name": "amount",
          "type": "uint256"
        }
      ],
      "name": "rewardClaimed",
      "type": "event"
    },
    {
      "anonymous": false,
      "inputs": [
        {
          "indexed": true,
          "internalType": "address",
          "name": "user",
          "type": "address"
        },
        {
          "indexed": false,
          "internalType": "uint256",
          "name": "tokenId",
          "type": "uint256"
        }
      ],
      "name": "staked",
      "type": "event"
    },
    {
      "anonymous": false,
      "inputs": [],
      "name": "unpaused",
      "type": "event"
    },
    {
      "inputs": [],
      "name": "UPGRADE_INTERFACE_VERSION",
      "outputs": [
        {
          "internalType": "string",
          "name": "",
          "type": "string"
        }
      ],
      "stateMutability": "view",
      "type": "function"
    },
    {
      "inputs": [
        {
          "internalType": "uint256[]",
          "name": "tokenIds",
          "type": "uint256[]"
        }
      ],
      "name": "claimRewards",
      "outputs": [],
      "stateMutability": "nonpayable",
      "type": "function"
    },
    {
      "inputs": [
        {
          "internalType": "address",
          "name": "_nft",
          "type": "address"
        },
        {
          "internalType": "address",
          "name": "_rewardToken",
          "type": "address"
        },
        {
          "internalType": "uint256",
          "name": "_rewardsPerBlock",
          "type": "uint256"
        },
        {
          "internalType": "uint256",
          "name": "_unbondingPeriod",
          "type": "uint256"
        },
        {
          "internalType": "uint256",
          "name": "_rewardDelayPeriod",
          "type": "uint256"
        }
      ],
      "name": "initialize",
      "outputs": [],
      "stateMutability": "nonpayable",
      "type": "function"
    },
    {
      "inputs": [],
      "name": "nft",
      "outputs": [
        {
          "internalType": "contract IERC721",
          "name": "",
          "type": "address"
        }
      ],
      "stateMutability": "view",
      "type": "function"
    },
    {
      "inputs": [
        {
          "internalType": "address",
          "name": "",
          "type": "address"
        },
        {
          "internalType": "address",
          "name": "",
          "type": "address"
        },
        {
          "internalType": "uint256",
          "name": "",
          "type": "uint256"
        },
        {
          "internalType": "bytes",
          "name": "",
          "type": "bytes"
        }
      ],
      "name": "onERC721Received",
      "outputs": [
        {
          "internalType": "bytes4",
          "name": "",
          "type": "bytes4"
        }
      ],
      "stateMutability": "nonpayable",
      "type": "function"
    },
    {
      "inputs": [],
      "name": "owner",
      "outputs": [
        {
          "internalType": "address",
          "name": "",
          "type": "address"
        }
      ],
      "stateMutability": "view",
      "type": "function"
    },
    {
      "inputs": [],
      "name": "pause",
      "outputs": [],
      "stateMutability": "nonpayable",
      "type": "function"
    },
    {
      "inputs": [],
      "name": "proxiableUUID",
      "outputs": [
        {
          "internalType": "bytes32",
          "name": "",
          "type": "bytes32"
        }
      ],
      "stateMutability": "view",
      "type": "function"
    },
    {
      "inputs": [],
      "name": "renounceOwnership",
      "outputs": [],
      "stateMutability": "nonpayable",
      "type": "function"
    },
    {
      "inputs": [],
      "name": "reward",
      "outputs": [
        {
          "internalType": "uint256",
          "name": "",
          "type": "uint256"
        }
      ],
      "stateMutability": "view",
      "type": "function"
    },
    {
      "inputs": [],
      "name": "rewardDelayPeriod",
      "outputs": [
        {
          "internalType": "uint256",
          "name": "",
          "type": "uint256"
        }
      ],
      "stateMutability": "view",
      "type": "function"
    },
    {
      "inputs": [],
      "name": "rewardPerBlock",
      "outputs": [
        {
          "internalType": "uint256",
          "name": "",
          "type": "uint256"
        }
      ],
      "stateMutability": "view",
      "type": "function"
    },
    {
      "inputs": [],
      "name": "rewardToken",
      "outputs": [
        {
          "internalType": "contract IERC20",
          "name": "",
          "type": "address"
        }
      ],
      "stateMutability": "view",
      "type": "function"
    },
    {
      "inputs": [
        {
          "internalType": "uint256",
          "name": "_rewardsPerBlock",
          "type": "uint256"
        }
      ],
      "name": "setRewardsPerBlock",
      "outputs": [],
      "stateMutability": "nonpayable",
      "type": "function"
    },
    {
      "inputs": [
        {
          "internalType": "uint256",
          "name": "tokenId",
          "type": "uint256"
        }
      ],
      "name": "stakeNFT",
      "outputs": [],
      "stateMutability": "nonpayable",
      "type": "function"
    },
    {
      "inputs": [
        {
          "internalType": "uint256",
          "name": "",
          "type": "uint256"
        }
      ],
      "name": "stakedNFTs",
      "outputs": [
        {
          "internalType": "address",
          "name": "owner",
          "type": "address"
        },
        {
          "internalType": "uint256",
          "name": "stakedBlock",
          "type": "uint256"
        },
        {
          "internalType": "uint256",
          "name": "claimedBlock",
          "type": "uint256"
        }
      ],
      "stateMutability": "view",
      "type": "function"
    },
    {
      "inputs": [
        {
          "internalType": "address",
          "name": "newOwner",
          "type": "address"
        }
      ],
      "name": "transferOwnership",
      "outputs": [],
      "stateMutability": "nonpayable",
      "type": "function"
    },
    {
      "inputs": [],
      "name": "unbondingPeriod",
      "outputs": [
        {
          "internalType": "uint256",
          "name": "",
          "type": "uint256"
        }
      ],
      "stateMutability": "view",
      "type": "function"
    },
    {
      "inputs": [],
      "name": "unpause",
      "outputs": [],
      "stateMutability": "nonpayable",
      "type": "function"
    },
    {
      "inputs": [
        {
          "internalType": "uint256",
          "name": "tokenId",
          "type": "uint256"
        }
      ],
      "name": "unstakeNFT",
      "outputs": [],
      "stateMutability": "nonpayable",
      "type": "function"
    },
    {
      "inputs": [
        {
          "internalType": "address",
          "name": "newImplementation",
          "type": "address"
        },
        {
          "internalType": "bytes",
          "name": "data",
          "type": "bytes"
        }
      ],
      "name": "upgradeToAndCall",
      "outputs": [],
      "stateMutability": "payable",
      "type": "function"
    },
    {
      "inputs": [
        {
          "internalType": "address",
          "name": "",
          "type": "address"
        },
        {
          "internalType": "uint256",
          "name": "",
          "type": "uint256"
        }
      ],
      "name": "userStakedNFTs",
      "outputs": [
        {
          "internalType": "uint256",
          "name": "",
          "type": "uint256"
        }
      ],
      "stateMutability": "view",
      "type": "function"
    },
    {
      "inputs": [
        {
          "internalType": "uint256",
          "name": "tokenId",
          "type": "uint256"
        }
      ],
      "name": "withdrawNFT",
      "outputs": [],
      "stateMutability": "nonpayable",
      "type": "function"
    }
  ],
  "bytecode": "0x60a06040523073ffffffffffffffffffffffffffffffffffffffff1660809073ffffffffffffffffffffffffffffffffffffffff1681525034801561004357600080fd5b506080516128fe61006d6000396000818161149a015281816114ef01526116aa01526128fe6000f3fe6080604052600436106101405760003560e01c80638456cb59116100b6578063b865749d1161006f578063b865749d146103f1578063c1dfa0bb14610430578063d13f90b414610459578063ec8376f414610482578063f2fde38b146104ad578063f7c618c1146104d657610140565b80638456cb59146102f35780638ae39cac1461030a5780638da5cb5b14610335578063a1003b2914610360578063aa2d0a0814610389578063ad3cb1cc146103c657610140565b80634f1ef286116101085780634f1ef2861461021857806352d1902d146102345780635eac62391461025f5780636cf6d675146102885780636eb604e0146102b3578063715018a6146102dc57610140565b8063023245d714610145578063150b7a021461016e578063228cb733146101ab5780633f4ba83a146101d657806347ccca02146101ed575b600080fd5b34801561015157600080fd5b5061016c60048036038101906101679190611c48565b610501565b005b34801561017a57600080fd5b5061019560048036038101906101909190611e19565b61074d565b6040516101a29190611ed7565b60405180910390f35b3480156101b757600080fd5b506101c0610761565b6040516101cd9190611f01565b60405180910390f35b3480156101e257600080fd5b506101eb610767565b005b3480156101f957600080fd5b506102026107b8565b60405161020f9190611f7b565b60405180910390f35b610232600480360381019061022d9190611f96565b6107dc565b005b34801561024057600080fd5b506102496107fb565b604051610256919061200b565b60405180910390f35b34801561026b57600080fd5b5061028660048036038101906102819190612086565b61082e565b005b34801561029457600080fd5b5061029d610b60565b6040516102aa9190611f01565b60405180910390f35b3480156102bf57600080fd5b506102da60048036038101906102d59190611c48565b610b66565b005b3480156102e857600080fd5b506102f1610d9e565b005b3480156102ff57600080fd5b50610308610db2565b005b34801561031657600080fd5b5061031f610e03565b60405161032c9190611f01565b60405180910390f35b34801561034157600080fd5b5061034a610e09565b60405161035791906120e2565b60405180910390f35b34801561036c57600080fd5b5061038760048036038101906103829190611c48565b610e41565b005b34801561039557600080fd5b506103b060048036038101906103ab91906120fd565b610e53565b6040516103bd9190611f01565b60405180910390f35b3480156103d257600080fd5b506103db610e84565b6040516103e891906121bc565b60405180910390f35b3480156103fd57600080fd5b5061041860048036038101906104139190611c48565b610ebd565b604051610427939291906121de565b60405180910390f35b34801561043c57600080fd5b5061045760048036038101906104529190611c48565b610f07565b005b34801561046557600080fd5b50610480600480360381019061047b9190612215565b611018565b005b34801561048e57600080fd5b5061049761125b565b6040516104a49190611f01565b60405180910390f35b3480156104b957600080fd5b506104d460048036038101906104cf9190612290565b611261565b005b3480156104e257600080fd5b506104eb6112e7565b6040516104f891906122de565b60405180910390f35b3373ffffffffffffffffffffffffffffffffffffffff166007600083815260200190815260200160002060000160009054906101000a900473ffffffffffffffffffffffffffffffffffffffff1673ffffffffffffffffffffffffffffffffffffffff16146105a5576040517f08c379a000000000000000000000000000000000000000000000000000000000815260040161059c90612345565b60405180910390fd5b60006007600083815260200190815260200160002060020154146105fe576040517f08c379a00000000000000000000000000000000000000000000000000000000081526004016105f5906123b1565b60405180910390fd5b60045460076000838152602001908152602001600020600101546106229190612400565b431015610664576040517f08c379a000000000000000000000000000000000000000000000000000000000815260040161065b90612480565b60405180910390fd5b60008054906101000a900473ffffffffffffffffffffffffffffffffffffffff1673ffffffffffffffffffffffffffffffffffffffff166342842e0e3033846040518463ffffffff1660e01b81526004016106c1939291906124a0565b600060405180830381600087803b1580156106db57600080fd5b505af11580156106ef573d6000803e3d6000fd5b505050506106fd338261130d565b60076000828152602001908152602001600020600080820160006101000a81549073ffffffffffffffffffffffffffffffffffffffff021916905560018201600090556002820160009055505050565b600063150b7a0260e01b9050949350505050565b60025481565b61076f611411565b6000600660006101000a81548160ff0219169083151502179055507fb0b62f5a1a4cb1584265f808c74f121a13f37ab548b504b17eb11b64d006ea6660405160405180910390a1565b60008054906101000a900473ffffffffffffffffffffffffffffffffffffffff1681565b6107e4611498565b6107ed8261157e565b6107f78282611589565b5050565b60006108056116a8565b7f360894a13ba1a3210667c828492db98dca3e2076cc3735a920a3ca505d382bbc60001b905090565b600660009054906101000a900460ff161561087e576040517f08c379a000000000000000000000000000000000000000000000000000000000815260040161087590612523565b60405180910390fd5b6000805b83839050811015610a2d5760008484838181106108a2576108a1612543565b5b90506020020135905060006007600083815260200190815260200160002090503373ffffffffffffffffffffffffffffffffffffffff168160000160009054906101000a900473ffffffffffffffffffffffffffffffffffffffff1673ffffffffffffffffffffffffffffffffffffffff1614610954576040517f08c379a000000000000000000000000000000000000000000000000000000000815260040161094b90612345565b60405180910390fd5b600081600201540361099b576040517f08c379a0000000000000000000000000000000000000000000000000000000008152600401610992906125be565b60405180910390fd5b60055481600201546109ad9190612400565b4310156109ef576040517f08c379a00000000000000000000000000000000000000000000000000000000081526004016109e69061262a565b60405180910390fd5b8060020154436109ff919061264a565b60038190555060025484610a139190612400565b935043816002018190555050508080600101915050610882565b50600160009054906101000a900473ffffffffffffffffffffffffffffffffffffffff1673ffffffffffffffffffffffffffffffffffffffff1663a9059cbb33836040518363ffffffff1660e01b8152600401610a8b92919061267e565b6020604051808303816000875af1158015610aaa573d6000803e3d6000fd5b505050506040513d601f19601f82011682018060405250810190610ace91906126df565b610b0d576040517f08c379a0000000000000000000000000000000000000000000000000000000008152600401610b0490612758565b60405180910390fd5b3373ffffffffffffffffffffffffffffffffffffffff167f83b78188b13346b2ffb484da70d42ee27de7fbf9f2bd8045269e10ed643ccd7682604051610b539190611f01565b60405180910390a2505050565b60045481565b600660009054906101000a900460ff1615610bb6576040517f08c379a0000000000000000000000000000000000000000000000000000000008152600401610bad90612523565b60405180910390fd5b60008054906101000a900473ffffffffffffffffffffffffffffffffffffffff1673ffffffffffffffffffffffffffffffffffffffff166342842e0e3330846040518463ffffffff1660e01b8152600401610c13939291906124a0565b600060405180830381600087803b158015610c2d57600080fd5b505af1158015610c41573d6000803e3d6000fd5b5050505060405180606001604052803373ffffffffffffffffffffffffffffffffffffffff168152602001438152602001438152506007600083815260200190815260200160002060008201518160000160006101000a81548173ffffffffffffffffffffffffffffffffffffffff021916908373ffffffffffffffffffffffffffffffffffffffff1602179055506020820151816001015560408201518160020155905050600860003373ffffffffffffffffffffffffffffffffffffffff1673ffffffffffffffffffffffffffffffffffffffff1681526020019081526020016000208190806001815401808255809150506001900390600052602060002001600090919091909150553373ffffffffffffffffffffffffffffffffffffffff167f8f169816223f856d6f6a5945e3f7c520efe6c139d4152b6bb65e454babb2f2cb82604051610d939190611f01565b60405180910390a250565b610da6611411565b610db0600061172f565b565b610dba611411565b6001600660006101000a81548160ff0219169083151502179055507f5c975abbf8c4d6efa68fc896e233763eb503f2318260b7bf59b19412913788b260405160405180910390a1565b60035481565b600080610e14611806565b90508060000160009054906101000a900473ffffffffffffffffffffffffffffffffffffffff1691505090565b610e49611411565b8060038190555050565b60086020528160005260406000208181548110610e6f57600080fd5b90600052602060002001600091509150505481565b6040518060400160405280600581526020017f352e302e3000000000000000000000000000000000000000000000000000000081525081565b60076020528060005260406000206000915090508060000160009054906101000a900473ffffffffffffffffffffffffffffffffffffffff16908060010154908060020154905083565b3373ffffffffffffffffffffffffffffffffffffffff166007600083815260200190815260200160002060000160009054906101000a900473ffffffffffffffffffffffffffffffffffffffff1673ffffffffffffffffffffffffffffffffffffffff1614610fab576040517f08c379a0000000000000000000000000000000000000000000000000000000008152600401610fa290612345565b60405180910390fd5b600060076000838152602001908152602001600020600201819055503373ffffffffffffffffffffffffffffffffffffffff167f4d49ff951d45b7b8489dcdebbf89d0c924c7a979d42d94a8da799d78e8ed59cb8260405161100d9190611f01565b60405180910390a250565b600061102261182e565b905060008160000160089054906101000a900460ff1615905060008260000160009054906101000a900467ffffffffffffffff1690506000808267ffffffffffffffff161480156110705750825b9050600060018367ffffffffffffffff161480156110a5575060003073ffffffffffffffffffffffffffffffffffffffff163b145b9050811580156110b3575080155b156110ea576040517ff92ee8a900000000000000000000000000000000000000000000000000000000815260040160405180910390fd5b60018560000160006101000a81548167ffffffffffffffff021916908367ffffffffffffffff160217905550831561113a5760018560000160086101000a81548160ff0219169083151502179055505b611142611856565b896000806101000a81548173ffffffffffffffffffffffffffffffffffffffff021916908373ffffffffffffffffffffffffffffffffffffffff16021790555088600160006101000a81548173ffffffffffffffffffffffffffffffffffffffff021916908373ffffffffffffffffffffffffffffffffffffffff1602179055508760038190555086600481905550856005819055506000600660006101000a81548160ff021916908315150217905550831561124f5760008560000160086101000a81548160ff0219169083151502179055507fc7f505b2f371ae2175ee4913f4499e1f2633a7b5936321eed1cdaeb6115181d2600160405161124691906127c7565b60405180910390a15b50505050505050505050565b60055481565b611269611411565b600073ffffffffffffffffffffffffffffffffffffffff168173ffffffffffffffffffffffffffffffffffffffff16036112db5760006040517f1e4fbdf70000000000000000000000000000000000000000000000000000000081526004016112d291906120e2565b60405180910390fd5b6112e48161172f565b50565b600160009054906101000a900473ffffffffffffffffffffffffffffffffffffffff1681565b6000600860008473ffffffffffffffffffffffffffffffffffffffff1673ffffffffffffffffffffffffffffffffffffffff168152602001908152602001600020905060005b818054905081101561140b578282828154811061137357611372612543565b5b9060005260206000200154036113fe578160018380549050611395919061264a565b815481106113a6576113a5612543565b5b90600052602060002001548282815481106113c4576113c3612543565b5b9060005260206000200181905550818054806113e3576113e26127e2565b5b6001900381819060005260206000200160009055905561140b565b8080600101915050611353565b50505050565b611419611860565b73ffffffffffffffffffffffffffffffffffffffff16611437610e09565b73ffffffffffffffffffffffffffffffffffffffff16146114965761145a611860565b6040517f118cdaa700000000000000000000000000000000000000000000000000000000815260040161148d91906120e2565b60405180910390fd5b565b7f000000000000000000000000000000000000000000000000000000000000000073ffffffffffffffffffffffffffffffffffffffff163073ffffffffffffffffffffffffffffffffffffffff16148061154557507f000000000000000000000000000000000000000000000000000000000000000073ffffffffffffffffffffffffffffffffffffffff1661152c611868565b73ffffffffffffffffffffffffffffffffffffffff1614155b1561157c576040517fe07c8dba00000000000000000000000000000000000000000000000000000000815260040160405180910390fd5b565b611586611411565b50565b8173ffffffffffffffffffffffffffffffffffffffff166352d1902d6040518163ffffffff1660e01b8152600401602060405180830381865afa9250505080156115f157506040513d601f19601f820116820180604052508101906115ee919061283d565b60015b61163257816040517f4c9c8ce300000000000000000000000000000000000000000000000000000000815260040161162991906120e2565b60405180910390fd5b7f360894a13ba1a3210667c828492db98dca3e2076cc3735a920a3ca505d382bbc60001b811461169957806040517faa1d49a4000000000000000000000000000000000000000000000000000000008152600401611690919061200b565b60405180910390fd5b6116a383836118bf565b505050565b7f000000000000000000000000000000000000000000000000000000000000000073ffffffffffffffffffffffffffffffffffffffff163073ffffffffffffffffffffffffffffffffffffffff161461172d576040517fe07c8dba00000000000000000000000000000000000000000000000000000000815260040160405180910390fd5b565b6000611739611806565b905060008160000160009054906101000a900473ffffffffffffffffffffffffffffffffffffffff169050828260000160006101000a81548173ffffffffffffffffffffffffffffffffffffffff021916908373ffffffffffffffffffffffffffffffffffffffff1602179055508273ffffffffffffffffffffffffffffffffffffffff168173ffffffffffffffffffffffffffffffffffffffff167f8be0079c531659141344cd1fd0a4f28419497f9722a3daafe3b4186f6b6457e060405160405180910390a3505050565b60007f9016d09d72d40fdae2fd8ceac6b6234c7706214fd39c1cd1e609a0528c199300905090565b60007ff0c57e16840df040f15088dc2f81fe391c3923bec73e23a9662efc9c229c6a00905090565b61185e611932565b565b600033905090565b60006118967f360894a13ba1a3210667c828492db98dca3e2076cc3735a920a3ca505d382bbc60001b611972565b60000160009054906101000a900473ffffffffffffffffffffffffffffffffffffffff16905090565b6118c88261197c565b8173ffffffffffffffffffffffffffffffffffffffff167fbc7cd75a20ee27fd9adebab32041f755214dbc6bffa90cc0225b39da2e5c2d3b60405160405180910390a26000815111156119255761191f8282611a49565b5061192e565b61192d611acd565b5b5050565b61193a611b0a565b611970576040517fd7e6bcf800000000000000000000000000000000000000000000000000000000815260040160405180910390fd5b565b6000819050919050565b60008173ffffffffffffffffffffffffffffffffffffffff163b036119d857806040517f4c9c8ce30000000000000000000000000000000000000000000000000000000081526004016119cf91906120e2565b60405180910390fd5b80611a057f360894a13ba1a3210667c828492db98dca3e2076cc3735a920a3ca505d382bbc60001b611972565b60000160006101000a81548173ffffffffffffffffffffffffffffffffffffffff021916908373ffffffffffffffffffffffffffffffffffffffff16021790555050565b60606000808473ffffffffffffffffffffffffffffffffffffffff1684604051611a7391906128b1565b600060405180830381855af49150503d8060008114611aae576040519150601f19603f3d011682016040523d82523d6000602084013e611ab3565b606091505b5091509150611ac3858383611b2a565b9250505092915050565b6000341115611b08576040517fb398979f00000000000000000000000000000000000000000000000000000000815260040160405180910390fd5b565b6000611b1461182e565b60000160089054906101000a900460ff16905090565b606082611b3f57611b3a82611bb9565b611bb1565b60008251148015611b67575060008473ffffffffffffffffffffffffffffffffffffffff163b145b15611ba957836040517f9996b315000000000000000000000000000000000000000000000000000000008152600401611ba091906120e2565b60405180910390fd5b819050611bb2565b5b9392505050565b600081511115611bcc5780518082602001fd5b6040517f1425ea4200000000000000000000000000000000000000000000000000000000815260040160405180910390fd5b6000604051905090565b600080fd5b600080fd5b6000819050919050565b611c2581611c12565b8114611c3057600080fd5b50565b600081359050611c4281611c1c565b92915050565b600060208284031215611c5e57611c5d611c08565b5b6000611c6c84828501611c33565b91505092915050565b600073ffffffffffffffffffffffffffffffffffffffff82169050919050565b6000611ca082611c75565b9050919050565b611cb081611c95565b8114611cbb57600080fd5b50565b600081359050611ccd81611ca7565b92915050565b600080fd5b600080fd5b6000601f19601f8301169050919050565b7f4e487b7100000000000000000000000000000000000000000000000000000000600052604160045260246000fd5b611d2682611cdd565b810181811067ffffffffffffffff82111715611d4557611d44611cee565b5b80604052505050565b6000611d58611bfe565b9050611d648282611d1d565b919050565b600067ffffffffffffffff821115611d8457611d83611cee565b5b611d8d82611cdd565b9050602081019050919050565b82818337600083830152505050565b6000611dbc611db784611d69565b611d4e565b905082815260208101848484011115611dd857611dd7611cd8565b5b611de3848285611d9a565b509392505050565b600082601f830112611e0057611dff611cd3565b5b8135611e10848260208601611da9565b91505092915050565b60008060008060808587031215611e3357611e32611c08565b5b6000611e4187828801611cbe565b9450506020611e5287828801611cbe565b9350506040611e6387828801611c33565b925050606085013567ffffffffffffffff811115611e8457611e83611c0d565b5b611e9087828801611deb565b91505092959194509250565b60007fffffffff0000000000000000000000000000000000000000000000000000000082169050919050565b611ed181611e9c565b82525050565b6000602082019050611eec6000830184611ec8565b92915050565b611efb81611c12565b82525050565b6000602082019050611f166000830184611ef2565b92915050565b6000819050919050565b6000611f41611f3c611f3784611c75565b611f1c565b611c75565b9050919050565b6000611f5382611f26565b9050919050565b6000611f6582611f48565b9050919050565b611f7581611f5a565b82525050565b6000602082019050611f906000830184611f6c565b92915050565b60008060408385031215611fad57611fac611c08565b5b6000611fbb85828601611cbe565b925050602083013567ffffffffffffffff811115611fdc57611fdb611c0d565b5b611fe885828601611deb565b9150509250929050565b6000819050919050565b61200581611ff2565b82525050565b60006020820190506120206000830184611ffc565b92915050565b600080fd5b600080fd5b60008083601f84011261204657612045611cd3565b5b8235905067ffffffffffffffff81111561206357612062612026565b5b60208301915083602082028301111561207f5761207e61202b565b5b9250929050565b6000806020838503121561209d5761209c611c08565b5b600083013567ffffffffffffffff8111156120bb576120ba611c0d565b5b6120c785828601612030565b92509250509250929050565b6120dc81611c95565b82525050565b60006020820190506120f760008301846120d3565b92915050565b6000806040838503121561211457612113611c08565b5b600061212285828601611cbe565b925050602061213385828601611c33565b9150509250929050565b600081519050919050565b600082825260208201905092915050565b60005b8381101561217757808201518184015260208101905061215c565b60008484015250505050565b600061218e8261213d565b6121988185612148565b93506121a8818560208601612159565b6121b181611cdd565b840191505092915050565b600060208201905081810360008301526121d68184612183565b905092915050565b60006060820190506121f360008301866120d3565b6122006020830185611ef2565b61220d6040830184611ef2565b949350505050565b600080600080600060a0868803121561223157612230611c08565b5b600061223f88828901611cbe565b955050602061225088828901611cbe565b945050604061226188828901611c33565b935050606061227288828901611c33565b925050608061228388828901611c33565b9150509295509295909350565b6000602082840312156122a6576122a5611c08565b5b60006122b484828501611cbe565b91505092915050565b60006122c882611f48565b9050919050565b6122d8816122bd565b82525050565b60006020820190506122f360008301846122cf565b92915050565b7f6e6f7420746865206f776e657200000000000000000000000000000000000000600082015250565b600061232f600d83612148565b915061233a826122f9565b602082019050919050565b6000602082019050818103600083015261235e81612322565b9050919050565b7f6e6f7420756e7374616b65640000000000000000000000000000000000000000600082015250565b600061239b600c83612148565b91506123a682612365565b602082019050919050565b600060208201905081810360008301526123ca8161238e565b9050919050565b7f4e487b7100000000000000000000000000000000000000000000000000000000600052601160045260246000fd5b600061240b82611c12565b915061241683611c12565b925082820190508082111561242e5761242d6123d1565b5b92915050565b7f756e626f6e64696e6720706572696f64206e6f74207061737365640000000000600082015250565b600061246a601b83612148565b915061247582612434565b602082019050919050565b600060208201905081810360008301526124998161245d565b9050919050565b60006060820190506124b560008301866120d3565b6124c260208301856120d3565b6124cf6040830184611ef2565b949350505050565b7f636f6e7472616374206973207061757365640000000000000000000000000000600082015250565b600061250d601283612148565b9150612518826124d7565b602082019050919050565b6000602082019050818103600083015261253c81612500565b9050919050565b7f4e487b7100000000000000000000000000000000000000000000000000000000600052603260045260246000fd5b7f4e465420756e7374616b65640000000000000000000000000000000000000000600082015250565b60006125a8600c83612148565b91506125b382612572565b602082019050919050565b600060208201905081810360008301526125d78161259b565b9050919050565b7f636c61696d2064656c6179206e6f74206d657400000000000000000000000000600082015250565b6000612614601383612148565b915061261f826125de565b602082019050919050565b6000602082019050818103600083015261264381612607565b9050919050565b600061265582611c12565b915061266083611c12565b9250828203905081811115612678576126776123d1565b5b92915050565b600060408201905061269360008301856120d3565b6126a06020830184611ef2565b9392505050565b60008115159050919050565b6126bc816126a7565b81146126c757600080fd5b50565b6000815190506126d9816126b3565b92915050565b6000602082840312156126f5576126f4611c08565b5b6000612703848285016126ca565b91505092915050565b7f726577617264207472616e73666572206661696c656400000000000000000000600082015250565b6000612742601683612148565b915061274d8261270c565b602082019050919050565b6000602082019050818103600083015261277181612735565b9050919050565b6000819050919050565b600067ffffffffffffffff82169050919050565b60006127b16127ac6127a784612778565b611f1c565b612782565b9050919050565b6127c181612796565b82525050565b60006020820190506127dc60008301846127b8565b92915050565b7f4e487b7100000000000000000000000000000000000000000000000000000000600052603160045260246000fd5b61281a81611ff2565b811461282557600080fd5b50565b60008151905061283781612811565b92915050565b60006020828403121561285357612852611c08565b5b600061286184828501612828565b91505092915050565b600081519050919050565b600081905092915050565b600061288b8261286a565b6128958185612875565b93506128a5818560208601612159565b80840191505092915050565b60006128bd8284612880565b91508190509291505056fea2646970667358221220316809f66b10e67fd3a15e4a2bf59e2c8d4db4ac5d6e3905297d69a2e284f0d864736f6c63430008180033",
  "linkReferences": {},
  "deployedLinkReferences": {}
}